:100000000C943F000C9467000C9467000C946700FC
:100010000C9467000C9467000C94ED060C94670038
:100020000C9467000C9467000C9467000C946700B4
:100030000C9467000C9467000C9467000C946700A4
:100040000C9422030C9467000C9468010C94AB018F
:100050000C9467000C9467000C9467000C94670084
:100060000C9467000C9467007110711071103510BA
:100070009B10A9107110711035109B107002112483
:100080001FBECFEFD8E0DEBFCDBF11E0A0E0B1E0F2
:10009000E4E1F2E202C005900D92A235B107D9F772
:1000A00022E0A2E5B1E001C01D92AD38B207E1F750
:1000B00010E0CFE3D0E004C02197FE010E94F210CF
:1000C000CE33D107C9F70E94AB020C9408110C94EF
:1000D0000000EF92FF920F9340E855E260E070E07D
:1000E00084E591E00E94E60184E591E00E946E02C1
:1000F0008823D1F366E071E084E591E00E9410036B
:10010000E12CF12C03E020E030E044E650E06AE02E
:1001100071E08EE990E00E94330A01E020E030E0D7
:1001200044E650E060E171E086EB90E00E94330A23
:100130000F91FF90EF900C943A0B089566E171E0F7
:1001400084E591E00E94100384E591E00E941A0189
:1001500080915201909153010196909353018093A5
:10016000520184E690E00E94930CE8CF65E271E0D2
:1001700084E591E00E94100384E591E00E941A0159
:100180008091520190915301019690935301809375
:10019000520184EF91E00E94930CE8CFFC0124858A
:1001A0003585F901E05CFF4F808191813296208195
:1001B0003181821B930B8F7399270895DC011C9664
:1001C000ED91FC911D97DF01A05CBF4F2D913C91FB
:1001D000119712968D919C9111972817390739F034
:1001E0008D919C91E80FF91F808190E008958FEF29
:1001F0009FEF0895FC01A485B585FD01E05CFF4FEC
:10020000208131813296808191812817390779F0D8
:1002100080819181A80FB91F8C91208131812F5F3E
:100220003F4F2F7333273183208390E008958FEF62
:100230009FEF0895FC0181A1882329F0A489B58945
:100240008C9186FFFBCF11A208950F931F93CF933C
:10025000DF93FC01A685B7858D01005C1F4FE80187
:100260008881998101968F739927AD014E5B5F4F0D
:10027000EA012881398182179307D1F3E8012881A7
:100280003981A20FB31F6C93A685B785A05CBF4FC1
:1002900011969C938E93A689B7892C9181E090E06A
:1002A000078C02C0880F991F0A94E2F7822B8C9367
:1002B00081E081A30488F589E02D808180648083BA
:1002C00081E090E0DF91CF911F910F910895089503
:1002D0001F920F920FB60F9211242F934F935F939B
:1002E0008F939F93EF93FF938091C00082FD1CC07A
:1002F0002091C6008091FA019091FB0101968F73C5
:1003000099274091FC015091FD018417950771F0E8
:10031000E091FA01F091FB01E654FE4F20839093A7
:10032000FB018093FA0102C08091C600FF91EF911A
:100330009F918F915F914F912F910F900FBE0F90D2
:100340001F90189584E591E00E94CE00892B11F052
:100350000C94670108951F920F920FB60F9211240B
:100360002F933F938F939F93EF93FF932091B60129
:100370003091B7018091B8019091B90128173907E0
:1003800031F48091C1008F7D8093C10014C0E09151
:10039000B801F091B901EA58FE4F20818091B8016F
:1003A0009091B90101968F7399279093B901809329
:1003B000B8012093C600FF91EF919F918F913F91DB
:1003C0002F910F900FBE0F901F901895CF92DF9234
:1003D000EF92FF920F931F93CF93DF93EC016A018B
:1003E0007B014115514E6105710509F1EC89FD89CB
:1003F00081E090E008A002C0880F991F0A94E2F7FC
:10040000808360E079E08DE390E0A70196010E948F
:10041000D01089019A01015011092109310936953D
:10042000279517950795980101151041A8F0EC89BB
:10043000FD89108260E874E88EE190E0A7019601E2
:100440000E94D010DA01C9010197A109B109B6953E
:10045000A795979587959C01E889F9893083EA8962
:10046000FB89208319A2EE89FF89408181E090E019
:100470009C010C8C02C0220F331F0A94E2F7242B3C
:100480002083EE89FF8940819C010D8C02C0220FE0
:10049000331F0A94E2F7242B2083EE89FF894081E1
:1004A0009C010E8C02C0220F331F0A94E2F7242B0A
:1004B0002083EE89FF8920810F8C02C0880F991F4D
:1004C0000A94E2F7809582238083DF91CF911F9178
:1004D0000F91FF90EF90DF90CF90089581E0089505
:1004E000E4E5F1E01382128288EE93E0A0E0B0E050
:1004F00084839583A683B78388E391E09183808387
:100500008AEB91E09587848786E791E097878687D5
:1005100085EC90E0918B808B84EC90E0938B828BC8
:1005200080EC90E0958B848B81EC90E0978B868BB0
:1005300082EC90E0918F808F86EC90E0938F828F99
:1005400084E0848F83E0858F87E0868F85E0878FC6
:1005500081E080A308950E946C030E946900C2EAB2
:10056000D1E00E949D002097E1F30E94A201F9CF03
:10057000CF92DF92EF92FF920F931F93CF93DF936F
:100580006C01EB017B01E40EF51E00E010E0CE15DE
:10059000DF0561F06991D601ED91FC910190F08148
:1005A000E02DC6010995080F191FF1CFC801DF9191
:1005B000CF911F910F91FF90EF90DF90CF90089512
:1005C0006115710579F0FB0101900020E9F7319781
:1005D000AF01461B570BDC01ED91FC910280F381CA
:1005E000E02D099480E090E00895DC01ED91FC910C
:1005F0000190F081E02D09940F931F93CF93DF9327
:10060000EC016DE00E94F5028C016AE0CE010E94CF
:10061000F502800F911FDF91CF911F910F910895E7
:100620000F931F93CF93DF93EC010E94E0028C01A4
:10063000CE010E94FC02800F911FDF91CF911F918C
:100640000F9108951F920F920FB60F9211242F93BE
:100650003F938F939F93AF93BF938091FF019091AE
:100660000002A0910102B09102023091FE0123E04C
:10067000230F2D3720F40196A11DB11D05C026E8DA
:10068000230F0296A11DB11D2093FE018093FF014F
:1006900090930002A0930102B093020280910302A2
:1006A00090910402A0910502B09106020196A11D4D
:1006B000B11D8093030290930402A0930502B093AE
:1006C0000602BF91AF919F918F913F912F910F9013
:1006D0000FBE0F901F901895789484B5826084BDEA
:1006E00084B5816084BD85B5826085BD85B5816036
:1006F00085BDEEE6F0E0808181608083E1E8F0E096
:100700001082808182608083808181608083E0E8C4
:10071000F0E0808181608083E1EBF0E080818460A3
:100720008083E0EBF0E0808181608083EAE7F0E0A5
:100730008081846080838081826080838081816009
:1007400080838081806880831092C1000895CF9358
:10075000DF938230910510F482E090E0E0918B020B
:10076000F0918C0220E030E0C0E0D0E0309711F151
:100770004081518148175907C0F04817590761F463
:1007800082819381209719F09B838A832BC0909359
:100790008C0280938B0226C02115310519F0421777
:1007A000530718F49A01BE01DF01EF010280F381C3
:1007B000E02DDCCF2115310509F1281B390B243040
:1007C000310590F412968D919C91139761157105E6
:1007D00021F0FB019383828304C090938C02809369
:1007E0008B02FD01329644C0FD01E20FF31F81939D
:1007F0009193225031092D933C933AC02091890264
:1008000030918A02232B41F420910201309103019F
:1008100030938A02209389022091000130910101D6
:100820002115310541F42DB73EB740910401509197
:100830000501241B350BE0918902F0918A02E21731
:10084000F307A0F42E1B3F0B2817390778F0AC01F3
:100850004E5F5F4F2417350748F04E0F5F1F5093D0
:100860008A02409389028193919302C0E0E0F0E014
:10087000CF01DF91CF9108950F931F93CF93DF9313
:10088000009709F48CC0FC01329713821282009108
:100890008B0210918C020115110581F420813181A8
:1008A000820F931F2091890230918A0228173907FD
:1008B00079F5F0938A02E093890271C0D80140E093
:1008C00050E0AE17BF0750F412962D913C9113974C
:1008D000AD012115310509F1D901F3CF9D01DA01EF
:1008E0003383228360817181860F971F821793075C
:1008F00069F4EC0128813981260F371F2E5F3F4FA5
:10090000318320838A819B8193838283452B29F4C1
:10091000F0938C02E0938B0242C01396FC93EE930B
:100920001297ED01499159919E01240F351FE2174D
:10093000F30771F480819181840F951F02961196BF
:100940009C938E938281938113969C938E9312979E
:10095000E0E0F0E0D80112968D919C9113970097FA
:1009600019F0F8018C01F6CF8D919C9198012E5FC2
:100970003F4F820F931F2091890230918A022817DE
:10098000390769F4309729F410928C0210928B0287
:1009900002C01382128210938A0200938902DF91AF
:1009A000CF911F910F9108950F931F93CF93DF93D2
:1009B00000D0CDB7DEB789839A830E94680B898106
:1009C0009A810E94A7038C010E94240C0115110535
:1009D00011F40E94B610C8010F900F90DF91CF91D3
:1009E0001F910F910895CF93DF93009751F0EC0181
:1009F0000E94680BCE010E943C04DF91CF910C94C1
:100A0000240CDF91CF910895FC010396928381839A
:100A10002FEF3FEF348323839683858390878783EB
:100A200010820895FC01118610860895CF93DF93FC
:100A30009C01FB01DC011196CD91DC911297D383CF
:100A4000C2838C819D81958384838C819D81DC010F
:100A500013967C936E9312977D836C8331872087E6
:100A6000F90180818F5F8083DF91CF9108950F938B
:100A70001F93CF93DF938C01FB01808191818F3F86
:100A80002FEF920721F4E801AF81B8850EC0D8019D
:100A9000139612962D913C911397E9014881598143
:100AA0008417950710F0D901F4CF12968D919C917F
:100AB000139793838283EC01FD83EC83B583A48336
:100AC0001396FC93EE93129711870087F8018081AB
:100AD0008F5F8083DF91CF911F910F910895CF9306
:100AE000DF93FC01A085B1858281938124813581CA
:100AF000EC013D832C83C481D5819B838A8311962D
:100B00008D919C9112978E179F0721F41296DC937A
:100B1000CE931197118610868C9181508C93DF9122
:100B2000CF91089531E1FC013083319722E2208397
:100B30003197A3E3A0833197608331977083319716
:100B40001082319760E8608331971082319762E0BC
:100B50006083319763E06083319764E0608331970D
:100B600065E06083319766E06083319767E060837A
:100B7000319768E06083319769E06083319760E185
:100B8000608331973083319732E13083319733E19D
:100B90003083319734E13083319735E130833197B9
:100BA00036E13083319737E13083319738E1308354
:100BB000319739E13083319730E23083319731E238
:100BC000308331972083319723E22083319740830C
:100BD00031975083319726E22083319727E2208393
:100BE000319728E22083319729E22083319720E34F
:100BF0002083319721E3208386970895A89520ECE0
:100C000088E190E00FB6F894A895809360000FBE3D
:100C100020936000A0916B02B0916C02CD91CDBF8A
:100C2000DD91DEBFFF91EF91DF91CF91BF91AF9149
:100C30009F918F917F916F915F914F913F912F91F4
:100C40001F910F91FF90EF90DF90CF90BF90AF90EA
:100C50009F908F907F906F905F904F903F902F90DC
:100C60001F900F900FBE0F90089581E008950F928E
:100C70000FB6F8940F921F9211242F923F924F9229
:100C80005F926F927F928F929F92AF92BF92CF921C
:100C9000DF92EF92FF920F931F932F933F934F9307
:100CA0005F936F937F938F939F93AF93BF93CF93F4
:100CB000DF93EF93FF93A0916B02B0916C020DB69E
:100CC0000D920EB60D920E94E50CA0916B02B091B0
:100CD0006C02CD91CDBFDD91DEBFFF91EF91DF9131
:100CE000CF91BF91AF919F918F917F916F915F91C4
:100CF0004F913F912F911F910F91FF90EF90DF90B7
:100D0000CF90BF90AF909F908F907F906F905F90AB
:100D10004F903F902F901F900F900FBE0F9008950F
:100D20000F920FB6F8940F921F9211242F923F92B8
:100D30004F925F926F927F928F929F92AF92BF92EB
:100D4000CF92DF92EF92FF920F931F932F933F93D7
:100D50004F935F936F937F938F939F93AF93BF93C3
:100D6000CF93DF93EF93FF93A0916B02B0916C024E
:100D70000DB60D920EB60D9213BE0E94780B811126
:100D80000E94E50CA0916B02B0916C02CD91CDBF99
:100D9000DD91DEBFFF91EF91DF91CF91BF91AF91D8
:100DA0009F918F917F916F915F914F913F912F9183
:100DB0001F910F91FF90EF90DF90CF90BF90AF9079
:100DC0009F908F907F906F905F904F903F902F906B
:100DD0001F900F900FBE0F9008950E9490061895D7
:100DE0000FB6F8940F92FC01928D0F900FBE81E028
:100DF000911180E008950F931F93CF93DF93EC013F
:100E0000042F1A8D8C8D81110CC088819981892BBA
:100E100009F03EC08A819B810E945D0E1B821A826E
:100E200038C0482F50E0011115C08C819D810E946F
:100E3000F8102C8D8C819D81820F911D9D838C8358
:100E40002A813B818217930718F1888199819D83BC
:100E50008C831EC08E819F810E94F8108C8D90E043
:100E60009195819591092E813F81280F391F3F83EC
:100E70002E83488159812417350730F42A813B811C
:100E8000820F931F9F838E83023011F41111115032
:100E900080E01F5F1A8FDF91CF911F910F9108950E
:100EA000FC01CB01448D4423A1F050E02681378121
:100EB000240F351F378326836281738126173707F6
:100EC00020F02081318137832683668177810C94DD
:100ED000F8100895EF92FF921F93CF93DF93EC01E8
:100EE0000FB6F8940F921E8D7C0181E1E80EF11C83
:100EF00011165CF48989882341F0C7010E94750DA1
:100F000081110E94F20D1150F3CF8FEF8E8F0F9051
:100F10000FBE0FB6F8940F921D8D7E0188E0E80E8B
:100F2000F11C11165CF48885882341F0C7010E94EA
:100F3000750D81110E94F20D1150F3CF8FEF8D8F3F
:100F40000F900FBEDF91CF911F91FF90EF9008950A
:100F5000CF93DF93EC010FB6F8940F92288139817B
:100F60009B8D4C8D949FC0011124F901E80FF91F4E
:100F7000FB83EA831A8E3D832C83841B9109820FA5
:100F8000931F9F838E838FEF8D8F8E8F61110CC087
:100F90008885882389F0CE0108960E94750D8823E4
:100FA00059F00E94370608C0CE0108960E94040539
:100FB000CE0141960E9404050F900FBE81E0DF91A3
:100FC000CF910895EF92FF921F93CF93DF931F92DB
:100FD000CDB7DEB7182F662321F0869FC0011124FC
:100FE00002C080E090E04F9669830E94D4047C01A7
:100FF0006981009789F0611104C0FC0191838083AD
:1010000004C04F96F70191838083F701138F648F9B
:1010100061E0C7010E94A807C7010F90DF91CF913F
:101020001F91FF90EF900895AF92BF92CF92DF9201
:10103000FF920F931F93CF93DF9300D000D01F92A6
:10104000CDB7DEB78C016B015D834C83F22E90E04F
:10105000580188E0A80EB11C0FB6F8940F92F80161
:10106000228D838D281718F0F2E0FF1214C04F2D47
:10107000B601C8010E94FB06F8019189992321F06D
:10108000C80141960E94750D81110E9437060F908C
:101090000FBE81E050C02C813D81232B19F40F90AD
:1010A0000FBE48C0911104C0CE0101960E94B50D3B
:1010B0000F900FBE0E94680B0FB6F8940F92F801C4
:1010C000858D8F3F09F4158EF801868D8F3F09F4C9
:1010D000168E0F900FBEBE016C5F7F4FCE01019642
:1010E0000E94C00D811121C00FB6F8940F92F80133
:1010F000928D838D0F900FBE981311C06C817D81EE
:10110000C5010E94430DC8010E946A070E94240C79
:10111000882311F091E0A0CF0E943706FBCFC801D1
:101120000E946A070E94240CF5CFC8010E946A073A
:101130000E94240C80E00F900F900F900F900F9062
:10114000DF91CF911F910F91FF90DF90CF90BF90D3
:10115000AF900895EF92FF921F93CF93DF93EC012E
:101160009A8D8B8D981710F02230E1F47A011E8D44
:10117000422FCE010E94FB061F3F81F489898823FC
:1011800079F0CE0141960E94750D882349F0E11453
:10119000F10431F081E0F701808305C01F5F1E8FED
:1011A00081E001C080E0DF91CF911F91FF90EF902F
:1011B0000895AF92BF92CF92DF92EF92FF920F937A
:1011C0001F93CF93DF9300D000D01F92CDB7DEB72F
:1011D0008C016B015D834C83E22E90E0580181E12C
:1011E000A80EB11C0FB6F8940F92F801F28CFF20F4
:1011F00071F1A680B780B601C8010E945007E110C6
:1012000019C0FA94F801F28E80819181892B29F41A
:101210000E94970EF80193838283F80180858823CA
:1012200091F0C80108960E94750D882361F00E9414
:10123000370609C0F801B782A6828189882319F090
:10124000C8014196F0CF0F900FBE81E05EC02C81A7
:101250003D81232B19F40F900FBE56C0911104C08D
:10126000CE0101960E94B50D0F900FBE0E94680B33
:101270000FB6F8940F92F801858D8F3F09F4158E03
:10128000F801868D8F3F09F4168E0F900FBEBE01B8
:101290006C5F7F4FCE0101960E94C00D81112AC064
:1012A000C8010E94F0068823F9F0F801808191813D
:1012B000892B49F40FB6F8940F92828193810E9492
:1012C000040E0F900FBE6C817D81C5010E94430DFD
:1012D000C8010E946A070E94240C882311F091E043
:1012E00081CF0E943706FBCFC8010E946A070E9487
:1012F000240CF5CFC8010E946A070E94240CC80183
:101300000E94F006882359F380E00F900F900F9011
:101310000F900F90DF91CF911F910F91FF90EF9061
:10132000DF90CF90BF90AF900895CF93DF93EC0103
:101330000FB6F8940F928D8D8F3F09F41D8E8E8D10
:101340008F3F09F41E8E0F900FBE8A8D811104C04D
:10135000CE0141960E94550DCE01DF91CF910C94A4
:101360006A07E0913302F09134028081811103C059
:101370008FEF9FEF0CC0E0913302F09134020580B3
:10138000F681E02D0680F781E02D82819381909394
:101390000B0280930A020895EF92FF920F931F931E
:1013A000CF93DF931F92CDB7DEB77C01009112027D
:1013B0001091130280916B0290916C0202966983E6
:1013C0000E946F0569818FEFE816F80699F466238D
:1013D00089F060916B0270916C026E5F7F4F85E1C6
:1013E00092E00F90DF91CF911F910F91FF90EF90BE
:1013F0000C941605E00EF11EE0916B02F0916C0268
:10140000F382E28260916B0270916C02E016F10649
:1014100078F480913102909132026E5F7F4F0F908D
:10142000DF91CF911F910F91FF90EF900C943705B2
:1014300080913302909134026E5F7F4F0E94370596
:1014400080910A0290910B02E816F90620F4F092BE
:101450000B02E0920A020F90DF91CF911F910F9142
:10146000FF90EF9008955F926F927F928F929F927C
:10147000AF92BF92CF92DF92EF92FF920F931F93A2
:10148000CF93DF935C013B016A014901502ECA01F1
:101490000E94D4048C01892B09F4DBC088E290E01F
:1014A0000E94D404EC01892BB1F0188F0F8BA60198
:1014B00065EA70E0C8010E94011121E0C21AD1085A
:1014C0008F89988DC80ED91EBE01675E7F4FF301CC
:1014D000C301089607C0C8010E94F304BAC0E81708
:1014E000F90749F09F014191DB014D93BD01D901FD
:1014F0002C912111F4CF18A2052D043008F003E03F
:101500000E8B09A31AA23E01B2E06B0E711CC3013F
:101510000E941205CE010C960E941205D987C88739
:1015200084E090E0801B91099D878C87DB8BCA8BC0
:101530001BA21CA21DA21EA21FA2A401B501C601CE
:101540000E94920599838883E114F10419F0F70150
:10155000D183C0830FB6F8940F92809114028F5FED
:101560008093140280916B0290916C02892BD1F5CB
:10157000D0936C02C0936B0280911402813009F009
:1015800041C087E492E00E94040580E592E00E9459
:10159000040589E592E00E94040582E692E00E943B
:1015A00004058EE392E00E94040585E392E00E9428
:1015B000040588E292E00E9404058FE192E00E9417
:1015C000040585E192E00E9404058EE392E0909389
:1015D00034028093330285E392E090933202809349
:1015E000310210C08091100281110CC0E0916B0299
:1015F000F0916C0296898E89891720F0D0936C0245
:10160000C0936B0280910C028F5F80930C028E89D5
:1016100090911102981710F480931102F9E08F9FB6
:10162000C0011124B301895B9D4F0E9416050F90E4
:101630000FBE80911002882351F0E0916B02F0916F
:101640006C0296898E89981710F40E94370681E003
:1016500001C08FEFDF91CF911F910F91FF90EF901D
:10166000DF90CF90BF90AF909F908F907F906F90C2
:101670005F900895EF92FF920F9388E0E82E82E04A
:10168000F82E00E020E030E040EC50E064E471E04F
:101690008FEA9CE00E94330A8130B1F40E94FC0E74
:1016A000813091F4F8942FEF3FEF30930B022093A9
:1016B0000A028093100210921302109212020F91EC
:1016C000FF90EF900C94FE050F91FF90EF9008951E
:1016D000809107028F5F8093070208950FB6F894F8
:1016E0000F9280911202909113020F900FBE0895F5
:1016F000CF92DF92EF92FF920F931F93CF93DF93DE
:101700008091070281118CC0009112021091130286
:101710000F5F1F4F10931302009312020115110562
:10172000B9F48091330290913402209131023091CA
:10173000320230933402209333029093320280932A
:10174000310280910D028F5F80930D020E94B109DA
:1017500080910A0290910B02C0E00817190708F463
:101760004FC0D9E0E0913302F091340280818111C1
:1017700003C08FEF9FEF11C0E0913302F09134026C
:101780000580F681E02DE680F780D70112968D91D5
:101790009C9113970817190728F490930B028093D4
:1017A0000A022EC06701B2E0CB0ED11CC6010E9416
:1017B0006F05F70184899589892B21F0C7010C9663
:1017C0000E946F05D70156969C918091110289174E
:1017D00010F490931102D99FC0011124B601895BC6
:1017E0009D4F0E941605E0916B02F0916C02D701AB
:1017F00056969C918689981708F4B4CFC1E0B2CF71
:10180000E0916B02F0916C02E689B9E0EB9FF00188
:101810001124E95BFD4F8081823040F0C1E006C0B9
:1018200080910F028F5F80930F02C0E080910E02C3
:101830008111C1E08C2FDF91CF911F910F91FF900B
:10184000EF90DF90CF900895EF92FF920F931F9348
:10185000CF93DF930FB6F8940F92809107028150D7
:101860008093070280910702882311F080E052C024
:10187000809114028823D1F3C0E0D0E089E0F82EF3
:10188000EE24E39480912802882351F1E0912D0207
:10189000F0912E02C681D781CE010C960E946F0571
:1018A0008E010E5F1F4FC8010E946F059E898091B7
:1018B0001102891710F490931102F99EC0011124AE
:1018C000B801895B9D4F0E941605E0916B02F09173
:1018D0006C029E8986899817A8F2E0920E02D2CFF8
:1018E000CD2B11F00E94B109C0910F02CC2351F011
:1018F000D1E00E94780B8111D0930E02C150C9F73C
:1019000010920F0280910E02882309F4AFCF0E943B
:10191000370681E00F900FBEDF91CF911F910F919D
:10192000FF90EF900895CF93DF9300D0CDB7DEB74F
:10193000009719F40E9437060DC089839A830E948C
:10194000680B60E089819A810E94CC090E94240C76
:10195000882381F30F900F90DF91CF9108958091AC
:101960001E02882349F10E94680BC0911F020E9449
:10197000240CCC23A1F30FB6F8940F92E09124022B
:10198000F0912502C681D781CE0102960E946F0593
:101990008091140281508093140280911E02815024
:1019A00080931E020F900FBE8F89988D0E94F304C2
:1019B000CE010E94F304D3CF80914702823010F011
:1019C0000E9437060E94AD10CACF8091070288237B
:1019D00021F081E080930E02089510920E02A091F2
:1019E0006B02B0916C02E0916B02F0916C022D9150
:1019F0003C918789908D8217930760F060916B020C
:101A000070916C0280916B0290916C02675E7F4FC7
:101A10000E94C3108091110269E0482F50E0649F3A
:101A20009001659F300D1124F901E95BFD4F908114
:101A3000911102C08150F1CFA181B28112960D9017
:101A4000BC91A02DB283A183265B3D4FA217B307A3
:101A500031F412962D913C9113973283218399E0B2
:101A6000949FF001959FF00D1124E95BFD4F0180DB
:101A7000F281E02D2681378130936C0220936B0236
:101A8000809311020895CF93DF93EB0120916B02B5
:101A900030916C02B901645F7F4F0E94370561E0AD
:101AA000CE01DF91CF910C94CC090F931F93CF936C
:101AB000DF931F92CDB7DEB78B0120916B0230917F
:101AC0006C02B901645F7F4F49830E94160549810A
:101AD000442311F00FEF1FEF642FC8010F90DF9127
:101AE000CF911F910F910C94CC090F931F93CF931B
:101AF000DF93DC011596ED91FC911697C681D78195
:101B00008E01045F1F4FC8010E946F05809107027C
:101B1000811114C00A501109C8010E946F059E89E5
:101B200080911102891710F490931102B9E09B9FE4
:101B3000C0011124B801895B9D4F03C0B80188E240
:101B400092E00E941605E0916B02F0916C029E8972
:101B50008689891720F481E080930E0201C080E01D
:101B6000DF91CF911F910F91089520910D02FC01FB
:101B70002083209112023091130232832183089531
:101B8000CF93DF930FB6F8940F92E0911202F09189
:101B90001302DB012D913C912F3FBFEF3B07D1F0AA
:101BA000B0910D02EC01A88149815A81BA1719F050
:101BB000E417F50788F4DF01A41BB50BA217B307E0
:101BC00058F4DB014E1B5F0B240F351F2D933C9304
:101BD0000E94B50D80E001C081E00F900FBEDF9143
:101BE000CF91089581E080930E02089580911002B4
:101BF000882331F080910702882321F080E0089546
:101C000081E0089582E008950F931F93CF93DF93AF
:101C1000FC01892B09F44CC08689A0916B02B0911C
:101C20006C0256969C91891708F042C02485358530
:101C300037FD0CC0A0916B02B0916C0256969C913E
:101C400024E030E0291B31093587248729E0829F71
:101C5000C0011124895B9D4F2285338528173907E0
:101C600001F58F01EF012296CE010E946F05E091F0
:101C70006B02F0916C029689F801968B80911102AB
:101C8000891710F490931102F9E09F9FC00111246D
:101C9000BE01895B9D4FDF91CF911F910F910C94F5
:101CA0001605A0916B02B0916C0256968C91868BB2
:101CB000DF91CF911F910F9108950F931F93CF93B1
:101CC000DF93FC01892B11F480E02CC082A18150AC
:101CD00082A3268991A12917B9F38111F5CFEF01CC
:101CE0008F010E5F1F4FC8010E946F0599A19E8B47
:101CF000492F50E024E030E0241B350B3D872C8732
:101D000080911102891710F49093110229E0249F09
:101D1000C001259F900D1124B801895B9D4F0E9441
:101D2000160581E0DF91CF911F910F910895809169
:101D30006B0290916C02892B39F0E0916B02F0916B
:101D40006C0282A18F5F82A380916B0290916C02E2
:101D500008950FB6F8940F928091710290917202DB
:101D6000892BE9F480E892E00E94040587E792E07D
:101D70000E94040580E892E09093760280937502B9
:101D800087E792E0909374028093730240E065E0ED
:101D90008AE00E94E20790937202809371020F9092
:101DA0000FBE0895FC017383628391878087461775
:101DB000570778F0421B530B8485958548175907C0
:101DC000C8F4BF016E5F7F4F8091730290917402DF
:101DD0000DC04217530718F46217730758F4BF0178
:101DE0006E5F7F4F80917502909176020E94370559
:101DF00080E0089581E00895EF92FF920F930E9492
:101E0000A90E8091710290917202892B81F08FE668
:101E1000E82E82E0F82E03E020E030E045E550E0D7
:101E200069E471E08CEA9FE00E94330A01C080E01F
:101E30000F91FF90EF9008950F931F93CF93DF932F
:101E400000D000D01F92CDB7DEB7A0917102B09143
:101E50007202109729F1F90169835B834A839D839C
:101E60008C836630A4F40E94F60DE0917102F0912B
:101E7000720220E0823011F4A80102C040E050E07C
:101E8000BE016F5F7F4FCF010E9414080AC020E09F
:101E9000AF01BE016F5F7F4FCD010E94AA0801C054
:101EA00080E00F900F900F900F900F90DF91CF91E7
:101EB0001F910F910895EF92FF920F931F93CF936D
:101EC000DF93E0917502F09176028081882389F199
:101ED0000580F681E02DE080F180C681D7818E01FA
:101EE0000E5F1F4FC8010E946F05E989FA89CE0174
:101EF00009958E85813029F72C853D852E0D3F1D56
:101F0000E216F30660F43B832A83D987C887B801B9
:101F100080917502909176020E943705D2CF00E041
:101F200010E020E030E0A70160E0CE010E941C0F2D
:101F3000C8CF80917302909174029093760280933F
:101F40007502F0937402E0937302DF91CF911F91B9
:101F50000F91FF90EF900895CF93DF93CDB7DEB749
:101F600027970FB6F894DEBF0FBECDBFE091750284
:101F7000F0917602DD24D3948081882339F0D12C2E
:101F80000580F681E02DE080F18002C0E12CF12C8B
:101F90000E94680B0E946E0B8C0180916D029091E3
:101FA0006E020817190720F40E945B0F81E001C040
:101FB00080E010936E0200936D02811150C0D11029
:101FC00036C00E151F05D0F10E94240CE091750259
:101FD000F09176020580F681E02DC680D780C6019B
:101FE00002960E946F05D6011E968C911E97813035
:101FF000B1F41C966D917C911D976E0D7F1D97011C
:10200000A801C6010E94D20E882349F000E010E02A
:1020100020E030E0A70160E0C6010E941C0FD6015D
:102020005196ED91FC915297C60109951EC0E09121
:102030007302F091740241E08081811140E0B701A8
:10204000601B710B80917102909172020E94950940
:102050000E94240C811109C00E94370606C00E940C
:10206000240C03C0898187FF0FC020E040E050E0CE
:10207000BE016F5F7F4F80917102909172020E944A
:10208000D9088111EFCF72CFEC80FD80F7018285F6
:102090009385892B21F0C70102960E946F050E944B
:1020A0006E0BAC0180916D0290916E02481759073A
:1020B00030F44E835F830E945B0F5F814E815093AB
:1020C0006E0240936D02E9810E2FEE0F110B220B71
:1020D000330B0A30110548F6F801EC5CFF4F0C9405
:1020E000F2102A813B81D7011C966D917C911D973E
:1020F000620F731FC7010E94D20E882309F4B5CF67
:10210000D7015196ED91FC915297C7010995F701BE
:102110008685813009F0A9CF448555858A819B81C8
:10212000480F591F00E010E020E030E060E0C701F8
:102130000E941C0F9ACF6A817B81D7011D967C93E8
:102140006E931C97640F751F9A01C7010E94D20EEF
:102150008CCFC7010E94F30488CF0E949D0082EAC1
:1021600091E0892B11F00C94A2010895259A2D9AE3
:102170002FEF80E792E0215080409040E1F700C0CF
:1021800000001D9AF5CF259A2D9A2FEF87EA91E648
:10219000215080409040E1F700C000001D9AF5CF2B
:1021A000A1E21A2EAA1BBB1BFD010DC0AA1FBB1F5B
:1021B000EE1FFF1FA217B307E407F50720F0A21BCD
:1021C000B30BE40BF50B661F771F881F991F1A943A
:1021D00069F760957095809590959B01AC01BD0164
:1021E000CF010895EE0FFF1F0590F491E02D0994A3
:1021F000FB01DC0102C001900D9241505040D8F724
:102200000895DC0101C06D9341505040E0F70895FE
:04221000F894FFCF70
:1022140000008D028000626C61005461736B3100B8
:102224005461736B3200546869732069732074615C
:10223400736B20310054686973206973207461736F
:102244006B203200000000002501B802CE00FA0025
:10225400DE001A0149444C4500546D7220537663E4
:02226400000078
:00000001FF
